:020000040800F2
:1000000000200020B9000008612C0008752C0008B1
:1000100000000000000000000000000000000000E0
:10002000000000000000000000000000612C00083B
:100030000000000000000000612C0008612C000896
:10004000612C0008612C0008612C0008612C00085C
:10005000612C0008612C0008612C0008612C00084C
:1000600000000000612C0008612C0008612C0008D1
:10007000612C0008612C00080000000099070008AE
:1000800000000000612C00080000000000000000DB
:10009000550C000800000000612C0008612C0008CD
:1000A000612C0008612C0008612C000891270008D1
:1000B000612C0008612C000802F04EFD02F010FDDA
:1000C000E1235B02180002F0BBFA62B6C04601F001
:1000D0001FF9024B180002F023FCFEE7704B0008EA
:1000E00080B582B000AF0200FB1D1A70FB1D1B78AB
:1000F0001A001F23134001229A40034B1A60C04686
:10010000BD4602B080BDC04600E100E090B583B0BE
:1001100000AF02003960FB1D1A70FB1D1B787F2B9E
:1001200032D92F4AFB1D1B7819000F230B40083BC7
:100130009B0806339B00D31804331B68FA1D127802
:10014000110003220A40D200FF2191400A00D2434D
:100150001A4011003B689B01FF221A40FB1D1B78CF
:10016000180003230340DB009A401D48FB1D1B7849
:100170001C000F232340083B9B080A4306339B00C7
:10018000C31804331A6027E0164AFB1D1B785BB2C4
:100190009B08C0339B009B58FA1D12781100032264
:1001A0000A40D200FF2191400A00D2431A401100B8
:1001B0003B689B01FF221A40FB1D1B78180003239C
:1001C0000340DB009A400748FB1D1B785BB29B088D
:1001D0000A43C0339B001A50C046BD4603B090BDD1
:1001E00000ED00E000E100E080B500AF0A4B0B4AF3
:1001F0005A60094B00229A60074B05221A60C046DC
:10020000054B1A6880235B021340F9D0024B002291
:100210001A60C046BD4680BD10E000E0FF7C0000D3
:1002200080B582B000AF786001E0FFF7DDFF7B684A
:100230005A1E7A60002BF8D1C046C046BD4602B0B7
:1002400080BD80B500AF204BDA6A1F4B02210A4304
:10025000DA621D4B9A6B1C4B802189030A439A6317
:100260001A4B1B681A4A1A40184B802189010A430D
:100270001A60164B1A6A154B802149040A431A6208
:10028000124B1B68134A1A40104B802109020A4383
:100290001A600E4B1A6A0D4B802149050A431A62F7
:1002A0000A4B5A68094BC0210A435A60074B9A68A7
:1002B000064BA021C9010A439A60074B074A1A61FD
:1002C000C046BD4680BDC04600100240000400503C
:1002D000FFCFFFFFFF3FFFFF00540040130F4270AE
:1002E00080B582B000AF02003960FB1D1A70214B4F
:1002F00001221A601F4B204A5A601E4B5A681D4B40
:10030000802189010A435A60C0461A4B9B69012229
:100310001340012BF9D1174BFA1D12789A62C0468F
:10032000144B9B6901221340012BF9D10120FFF7E7
:1003300077FF104B05221A600E4B104A5A600D4B86
:100340005A680C4B802189010A435A60C046094B08
:100350009B6904221340042BF9D1064B5B6ADAB285
:100360003B681A700120FFF75BFF01231800BD46B0
:1003700002B080BD0054004052000102520401024C
:1003800080B582B000AF02003960FB1D1A702A4BA5
:1003900001221A60284B294A5A60274B5A68264B7B
:1003A000802189010A435A60C046234B9B69012280
:1003B0001340012BF9D1204BFA1D12789A62C046E6
:1003C0001D4B9B6901221340012BF9D10120FFF73E
:1003D00027FF194B05221A60174B194A5A60164B12
:1003E0005A68154B802189010A435A60C046124B56
:1003F0009B6904221340042BF9D10F4B5B6A9BB21B
:100400001B029AB23B681A80C0460B4B9B690422C0
:100410001340042BF9D1084B596A3B681A888BB2F8
:10042000D3189AB23B681A800120FFF7F9FE012326
:100430001800BD4602B080BD0054004052000102C9
:100440005204020280B582B000AF0200FB1D1A7098
:10045000BB1D0A1C1A70194B01221A60174B184A4F
:100460005A60164B5A68154B802189010A435A601D
:10047000C046124B9B6901221340012BF9D10F4B4F
:10048000FA1D12789A62C0460C4B9B6901221340F8
:10049000012BF9D1094BBA1D12789A62C046074B5D
:1004A0009B6901221340012BF9D10120FFF7B8FE0F
:1004B00001231800BD4602B080BDC0460054004074
:1004C0005200020280B582B000AFFB1D00221A70FC
:1004D0003B1D00221A800A2002F064FFFB1D190058
:1004E000C020FFF7FDFEFB1D1B781A00204B1100FA
:1004F000180002F02DFFFB1D1900C120FFF7F0FED0
:10050000FB1D1B781A001B4B1100180002F020FF86
:10051000FB1D1900C220FFF7E3FEFB1D1B781A002C
:10052000154B1100180002F013FF3B1D190051205C
:10053000FFF726FF3B1D1B881A00104B1100180007
:1005400002F006FF3B1D19006120FFF719FF3B1D5C
:100550001B881A000A4B1100180002F0F9FE094B23
:10056000180002F0A5FFC046BD4602B080BDC046DF
:10057000BC490008D0490008E4490008F8490008CF
:100580000C4A0008204A000880B500AF1B4BDA6A0D
:100590001A4B01210A43DA62184B9A6B174B8021E0
:1005A00089020A439A63A023DB051A68A023DB05AE
:1005B000F0218A431A60A023DB051A68A023DB051B
:1005C000A0210A431A60A023DB051A6AA023DB05D9
:1005D0000B490A401A62A023DB051A6AA023DB0537
:1005E0008821C9010A431A62064B074ADA60054BA3
:1005F0000D221A60C046BD4680BDC04600100240B4
:10060000FF00FFFF00440040050D000080B500AF73
:100610002A4BDA6A294B03210A43DA62A023DB055D
:100620001A68A023DB0526490A401A60A023DB05CF
:100630001A68A023DB0523490A431A60A023DB05BF
:100640009A68A023DB051F490A439A60A023DB05B3
:100650005A69A023DB051C490A405A611B4B1A68E2
:100660001A4B1B490A401A60184BDA68174B184995
:100670000A40DA60154BDA68144B802149000A43BE
:10068000DA60A023DB051A68A023DB0510490A40C5
:100690001A60A023DB05DA68A023DB050C490A40B9
:1006A000DA60A023DB05DA68A023DB05802149009E
:1006B0000A43DA60C046BD4680BDC0460010024015
:1006C000F3C33FFC041440019DE7FFFF000400500A
:1006D000FFFCFFFF80B500AF124BDA6A114B03211C
:1006E0000A43DA62A023DB051A68A023DB05C021D8
:1006F00009020A431A600C4B1A680B4B03210A4388
:100700001A60094B1A68084B0C210A431A60A0238F
:10071000DB051A68A023DB0503210A431A60C046E3
:10072000BD4680BD001002400004005080B500AFFF
:10073000174B9A6B164B01210A439A638023DB0502
:100740001F229A628023DB05124ADA628023DB05CE
:100750001A698023DB0501218A431A618023DB05A6
:10076000DA688023DB0501210A43DA6000210F20CB
:10077000FFF7CCFC0F20FFF7B3FC8023DB051A68E2
:100780008023DB0501210A431A60C046BD4680BDB7
:1007900000100240E703000080B500AF8023DB05B6
:1007A0001B69012213401ED08023DB051A698023B8
:1007B000DB0501218A431A61654B1B78DBB2002BF4
:1007C00007D0644B1B68002B03D1614B00221A70C9
:1007D00009E05F4B1B78DBB2002B04D05D4B1B683C
:1007E0005A1E5C4B1A605C4B18685C490A23002255
:1007F00000F0D4F85A4B18685A490A23012200F035
:10080000CDF8594B186859490A23022200F0C6F85E
:10081000574B186857490A23032200F0BFF8564B7C
:10082000186856491423042200F0B8F8544B19688C
:10083000544A554B180000F07FF900F057FD0300B3
:100840001A00524B1A70514B1B78DBB2432B04D069
:100850004F4B1B78DBB2432B37D14D4B43221A70E1
:100860004A4B1B78DBB2522B06D14A4B04221A604A
:10087000032000F03BFA28E0444B1B78DBB24C2B02
:1008800006D1444B04221A60022000F02FFA1CE02B
:100890003E4B1B78DBB2462B06D13E4B04221A603E
:1008A000012000F023FA10E0384B1B78DBB2532B09
:1008B0000BD1384B04221A60042000F017FA344B95
:1008C00000221A70314B00221A70304B1B78DBB2B9
:1008D000312B0BD12F4B01221A60012000F006FAB8
:1008E0002A4B1B78DAB22C4B1A702EE0274B1B7860
:1008F000DBB2322B06D1274B01221A60022000F016
:10090000F5F922E0214B1B78DBB2332B06D1214BCA
:1009100001221A60032000F0E9F916E01B4B1B7856
:10092000DBB2342B06D11B4B01221A60042000F0ED
:10093000DDF90AE0154B1B78DBB2352B05D1154BE1
:1009400001221A60052000F0D1F9C046BD4680BDE5
:10095000E50000207C000020F400002008010020B9
:10096000F80000200C010020FC00002010010020F5
:1009700000010020140100200401002018010020C3
:10098000280100202C010020240100202D0100203E
:100990002F010020740000202E01002080B584B0BB
:1009A00000AFF860B9607A603B60FB68002B21D033
:1009B000BB681A68FB689A4209DA7B68180000F085
:1009C0002FF8BB681B685A1CBB681A6012E0BB6832
:1009D0001A68FB689A420DDBBB681B683A689A424A
:1009E00008DD7B68180000F060F8BB681B685A1CC3
:1009F000BB681A60FB68002B06D17B68180000F00A
:100A000054F8BB6800221A60BB681B683A689A42B7
:100A100002DCBB6800221A60C046BD4604B080BD3F
:100A200080B582B000AF78607B68002B08D1A0232E
:100A3000DB055A69A023DB0520210A435A6130E017
:100A40007B68012B08D1A023DB055A69A023DB05B5
:100A500002210A435A6124E07B68022B09D1A023BA
:100A6000DB055A69A023DB05802109010A435A618D
:100A700017E07B68032B08D1A023DB055A69A0236C
:100A8000DB0540210A435A610BE07B68042B08D147
:100A9000A023DB055A69A023DB05802149010A4315
:100AA0005A61C046BD4602B080BD80B582B000AF7D
:100AB00078607B68002B08D1A023DB055A69A0234E
:100AC000DB0520218A435A612EE07B68012B08D187
:100AD000A023DB055A69A023DB0502218A435A6162
:100AE00022E07B68022B08D1A023DB055A69A023F2
:100AF000DB050F490A405A6116E07B68032B08D1D9
:100B0000A023DB055A69A023DB0540218A435A61F3
:100B10000AE07B68042B07D1A023DB055A69A023D8
:100B2000DB0504490A405A61C046BD4602B080BD9B
:100B3000FFF7FFFFFFEFFFFF80B584B000AFF86065
:100B4000B9607A607B681B78DBB201225340DBB26C
:100B5000002B0CD0254B00221A60254B00221A6076
:100B6000244B00221A607B6800221A703BE0FB686D
:100B70001B78DBB201225340DBB2002B17D01C4B99
:100B80001A68BB689A4208DA1A4B02221A60184B9C
:100B90001B685A1C164B1A6025E0164B00221A607F
:100BA000134B00221A607B6800221A701BE0FB685E
:100BB0001B78DBB2002B16D00C4B1A68BB689A422C
:100BC00008DA0C4B01221A60084B1B685A1C074BB1
:100BD0001A6008E0074B00221A60044B00221A60DA
:100BE0007B6800221A70BD4604B080BD2001002041
:100BF0001C0100200401002080B500AF134B5A6B8C
:100C0000124B04210A435A63114B1F229A62104B64
:100C10006322DA620E4B1A690D4B01218A431A6175
:100C20000B4BDA680A4B01210A43DA6000211420D9
:100C3000FFF76CFA1420FFF753FA054B1A68044BC0
:100C400001210A431A60C046BD4680BD0010024023
:100C50000008014080B582B000AF204B1B69012223
:100C6000134037D01D4B1A691C4B01218A431A616E
:100C7000A023DB051B691022134008D1184B1B6809
:100C80005A1C174B1A60174B00221A6022E0144BB3
:100C90001B68002B12D0124B1B6805330A21180069
:100CA00002F0CCF903007B600D4B00221A607B68D8
:100CB000002B03DD7B68180000F018F8094B1B6857
:100CC0005A1C084B1A60074B1B68282B02DD064B89
:100CD00000221A60C046BD4602B080BD0008014037
:100CE00078000020300100207400002080B582B020
:100CF00000AF7860854B1B68002B0BD17A68834B63
:100D00001A60824B1B68062B00D8F7E07F4B00224D
:100D10001A60F3E07D4B1B68012B5FD17B68052BCC
:100D200033D17B4B1A687B4B1A607A4B1B68002BC4
:100D300002D1784B01221A60754B05221A60754B5F
:100D40001B68012B03D1744B06221A6018E0714B0B
:100D50001B68022B03D1704B05221A6010E06D4B0B
:100D60001B68032B03D16C4B06221A6008E0694B09
:100D70001B68042B04D1694B1B689A1E664B1A60D2
:100D8000674B180000F0AEF905E0614B7A681A6015
:100D9000644B00221A60644B1B68002B03D1634B29
:100DA00005221A6003E0604B1A68604B1A60604BC2
:100DB00000221A605F4B00221A70544B00221A6006
:100DC000534B1B68042B05D1544B1A685A4B9200A5
:100DD0000421D150594B01221A708FE04B4B1B68F4
:100DE000022B26D1494B00221A60494B00221A607F
:100DF0007B68032B03DC4E4B00221A607EE07B688D
:100E0000062B03DC4A4B5A221A6077E07B68092BD9
:100E100004DC474B872252001A606FE07B680C2B82
:100E200003DC434BB4221A6068E0414B00221A6095
:100E300064E0364B1B68032B1BD13B4B7A681A606E
:100E4000394B1B68042B02DC374B00221A60364BEF
:100E50001B68072B02DD344B08221A60324B1A68DC
:100E6000324B1A60294B00221A60294B00221A606B
:100E700044E0264B1B68042B0ED1244B00221A6041
:100E8000264B1A682C4B92007968D150234B1B6873
:100E90005A1C224B1A6031E01C4B1B68052B09D1F0
:100EA000214B00221A60224B00221A60174B0022AD
:100EB0001A6023E0154B1B68062B1CD17B68012BA5
:100EC00009D11F4B46221A601E4B01221A701E4B7D
:100ED00001221A700BE07B68022B08D1184B4622C6
:100EE0001A60184B00221A70174B01221A70074B18
:100EF00000221A6002E0054B00221A60134B002208
:100F00001A60C046BD4602B080BDC04674000020D5
:100F10008C00002000000020DC000020D800002011
:100F2000B20C000090000020880000200400002087
:100F300084000020E600002094000020E80000204B
:100F400028010020240100202C010020780000202E
:100F500080B500AF0A4B00221A600A4B00221A60CB
:100F6000094B1A68094B1A60074B1A68084B1A603C
:100F7000084B1B685A1C074B1A60C046BD4680BD13
:100F8000F80000200001002004000020F4000020F0
:100F9000FC0000208000002080B500AF084B1A68DC
:100FA000084B1A60064B1A68074B1A60074B002261
:100FB0001A60074B00221A60C046BD4680BDC0467D
:100FC00004000020F800002000010020F4000020B0
:100FD000FC00002080B500AF124B00221A60124BBB
:100FE00000221A60114B00221A60114B00221A6075
:100FF000104B1B78DBB201225340DBB2002B08D030
:101000000D4B46221A600D4B00221A700C4B012228
:101010001A700C4B00221A60064B01221A70C0464F
:10102000BD4680BDF800002000010020F400002033
:10103000FC000020E6000020280100202401002000
:101040002C0100208000002080B500AF084B00225A
:101050001A60084B00221A60074B00221A60074BE7
:1010600000221A60064B00221A60C046BD4680BDB1
:10107000F800002000010020F4000020FC00002007
:101080008000002080B582B000AF78600D4B002258
:101090001A600D4B1A680D4B1A600B4B1A680C4BFB
:1010A0001A600C4B00221A600B4B7A681A600B4BCB
:1010B00001221A700A4B00221A60C046BD4602B0D7
:1010C00080BDC046F8000020040000200001002080
:1010D000F4000020FC0000207C000020E50000203F
:1010E0008000002080B582B000AF78600D4B1A6898
:1010F0000D4B1A600D4B00221A600D4B00221A6036
:10110000084B1A680B4B1A600B4B7A681A600B4B32
:1011100001221A700A4B00221A60C046BD4602B076
:1011200080BDC04604000020F8000020000100201F
:10113000F4000020FC0000207C000020E5000020DE
:101140008000002090B583B000AF80239B00180082
:1011500001F03EFF0400802001F03AFF0300E31A93
:101160007B607B68D9175A184A40C8235B009A42B3
:101170000ADD7B68002B07DD124B1B68002B03D1B7
:101180000120FFF77FFF19E07B68D9175A184A4002
:10119000C8235B009A420ADD7B68002B07DA094B03
:1011A0001B68002B03D10120FFF79CFF06E0054BD5
:1011B0001B68002B02D1FFF7CBFEFFE7C046BD4600
:1011C00003B090BD7C00002080B582B000AF786095
:1011D0007B68012B02D1FFF7BBFE14E07B68022B7A
:1011E00004D10B4B1800FFF77DFF0CE07B68032B4D
:1011F00004D1074B1800FFF745FF04E07B68042B80
:1012000001D1FFF7E7FEC046BD4602B080BDC04633
:101210001405000080B582B000AF78607B68012BB8
:1012200002D1FFF795FE14E07B68022B04D10B4B33
:101230001800FFF727FF0CE07B68032B04D1074B56
:101240001800FFF74FFF04E07B68042B01D1FFF784
:10125000C1FEC046BD4602B080BDC04614050000B8
:1012600080B500AF1E4B1B682C2B05DD1C4B1A688C
:101270009B235B009A4206DD1A4B1B68002B02D0B1
:10128000FFF766FE29E0164B1B68822B0ADD144B24
:101290001B68D12B06DC134B1B68002B02D0FFF719
:1012A0007BFE1AE0104B1B68002B0FD10D4B1B6807
:1012B000002B0BD00A4B1B68BD2B03DC0120FFF772
:1012C000E1FE0AE00120FFF70DFF06E0054B1B6879
:1012D000002B02D1FFF7B8FEFFE7C046BD4680BD38
:1012E00084000020880000207C00002080B500AF32
:1012F000064BDB692022134003D0044B5B6ADBB250
:1013000000E000231800BD4680BDC04600440040F8
:1013100090B59BB000AF4023FB18DD4A13CA13C33E
:1013200013CA13C303CA03C32423FB18D94A13CA1D
:1013300013C313CA13C312681A603B1DD64A13CADB
:1013400013C313CA13C303CA03C300237B66012359
:101350003B66FFF719F901F0EBFDFFF7E7F9FEF740
:1013600070FFFFF7AFF800F0CBFF03001A00CB4B84
:101370001A70FFF7AFF9FFF749F900210F20FEF7C8
:10138000C5FE01211420FEF7C1FEFA235B00180000
:10139000FEF746FFFFF730FCC14B180001F0D8FF05
:1013A0007B6E5A1C7A66092B6FDD802001F010FEDF
:1013B0000200BC4B1100180001F0CAFF80239B0003
:1013C000180001F005FE0200B74B1100180001F0F3
:1013D000BFFF80235B00180001F0FAFD0200B34B51
:1013E0001100180001F0B4FFB14B1A68B14B1100A5
:1013F000180001F0ADFFB04B1A68B04B1100180097
:1014000001F0A6FFAE4B1A68AE4B1100180001F0B8
:101410009FFFAD4B1A68AD4B1100180001F098FF0B
:10142000AB4B1A68AB4B1100180001F091FFAA4BAF
:101430001A68AA4B1100180001F08AFFA84B1A681D
:10144000A84B1100180001F083FF012001F0C0FD3E
:101450000200A54B1100180001F07AFFA34B1A6897
:10146000A34B1100180001F073FF00237B66A14B12
:101470001B78DBB2002B08D09E4B1B78DBB21A0026
:101480009D4B1100180001F063FF894B1B68002B76
:101490001AD19A4B1B68002B16D1994B1A68984B9E
:1014A00001218A431A60974B180000F05BFF03008C
:1014B0001A007A4B1A707E4B00221A60904B1A6801
:1014C0008F4B01210A431A60744B1B78002B0AD002
:1014D0008C4B1B88632B06D88B4B01221A706F4BE9
:1014E00000221A7002E0884B00221A70874B1B6999
:1014F0001022134014D1864B1B78DBB2002B0FD087
:101500006D4B1B68002B0BD0824B50221A60824B14
:1015100001221A70814B01221A707D4B00221A7031
:10152000654B1B68002B00D10BE1694B1B68002B3E
:1015300000DD08E1684B1B68002B07DDFFF708FDA5
:10154000654B1B685A1E644B1A60FCE080235B00ED
:10155000180001F03DFD0200E1239B009A4200DCEF
:1015600083E0554B1B68052B41D1604B1B68002B5A
:1015700002D1FFF72FFD34E0694B1B68012B09D125
:101580005A4B1A684023FB189200D3581800FFF7F3
:1015900041FE26E0624B1B68022B09D1534B1A68AF
:1015A0002423FB189200D3581800FFF733FE18E0ED
:1015B0005B4B1B68032B08D14C4B1A683B1D9200F8
:1015C000D3581800FFF726FE0BE0554B1B68042B81
:1015D00007D1464B1A68534B9200D3581800FFF7B7
:1015E00019FE424B1B685A1E404B1A6039E0324BC1
:1015F0001B68012B09D13A4B1A684023FB18920053
:10160000D3581800FFF7E0FD26E02B4B1B68022B98
:1016100009D1334B1A682423FB189200D3581800C1
:10162000FFF7D2FD18E0244B1B68032B08D12C4B8D
:101630001A683B1D9200D3581800FFF7C5FD0BE058
:101640001D4B1B68042B07D1254B1A68354B9200A4
:10165000D3581800FFF7B8FD214B1B685A1C204BCC
:101660001A601D4B05221A606DE02F4B1B78DBB210
:1016700001225340DBB2002B58D0234B1B78DBB246
:1016800001225340DBB2002B50D0FFF75BFD5AE044
:10169000144B0008344B0008504B0008F0000020A9
:1016A000244A0008304A00083C4A0008484A00081A
:1016B000780000205C4A00088C0000206C4A00087A
:1016C00088000020804A000884000020904A00081A
:1016D0007C0000209C4A0008E0000020B04A00087E
:1016E00090000020C84A0008D44A0008DC0000200E
:1016F000E44A00082E010020084B00087400002076
:1017000000080140F2000020E70000200004005023
:10171000E800002028010020240100202C010020E6
:101720000000002094000020E6000020084B1B78F9
:10173000DBB2002B02D0FFF787FC04E0FFF74AFC86
:1017400001E0FFF78DFD1420FEF76AFD28E6C04694
:10175000E700002080B582B000AFFB1D00221A70A8
:10176000FB1D1900C020FEF7BBFD031E01D10023A5
:1017700005E0FB1D1B78EE3B5A425341DBB21800DB
:10178000BD4602B080BD80B582B000AFFB1D002217
:101790001A70BB1D00221A70BB1D19008920FEF7AC
:1017A0009FFD031E01D1002378E0BB1D1B780122A1
:1017B0001343DAB2BB1D1A70BB1D1B7819008920B8
:1017C000FEF740FE031E01D1002367E000218820C0
:1017D000FEF738FE03001A00FB1D511E8A411A70E5
:1017E00001218020FEF72EFE03001A00FB1D1B784E
:1017F0001A40FB1D511E8A411A700121FF20FEF77D
:1018000021FE03001A00FB1D1B781A40FB1D511E10
:101810008A411A7000210020FEF714FE03001A000E
:10182000FB1D1B781A40FB1D511E8A411A701D4B6F
:1018300019009120FEF754FD03001A00FB1D1B78D0
:101840001A40FB1D511E8A411A7001210020FEF72B
:10185000F9FD03001A00FB1D1B781A40FB1D511EE9
:101860008A411A700021FF20FEF7ECFD03001A00E8
:10187000FB1D1B781A40FB1D511E8A411A70002166
:101880008020FEF7DFFD03001A00FB1D1B781A40C5
:10189000FB1D511E8A411A70FB1D1B781800BD46A6
:1018A00002B080BD3401002080B582B000AF0121BC
:1018B000FF20FEF7C7FD03001A00FB1D511E8A41E1
:1018C0001A7000210020FEF7BDFD03001A00FB1D69
:1018D0001B781A40FB1D511E8A411A700021FF20FF
:1018E000FEF7B0FD03001A00FB1D1B781A40FB1D1C
:1018F000511E8A411A7000210920FEF7A3FD030042
:101900001A00FB1D1B781A40FB1D511E8A411A70DC
:1019100000211020FEF796FD03001A00FB1D1B7826
:101920001A40FB1D511E8A411A7000211120FEF73A
:1019300089FD03001A00FB1D1B781A40FB1D511E78
:101940008A411A7001212420FEF77CFD03001A0051
:10195000FB1D1B781A40FB1D511E8A411A70FF2186
:101960002520FEF76FFD03001A00FB1D1B781A40AF
:10197000FB1D511E8A411A7000217520FEF762FD81
:1019800003001A00FB1D1B781A40FB1D511E8A41E3
:101990001A700121FF20FEF755FD03001A00FB1D00
:1019A0001B781A40FB1D511E8A411A702C214E20B3
:1019B000FEF748FD03001A00FB1D1B781A40FB1DB3
:1019C000511E8A411A7000214820FEF73BFD03009A
:1019D0001A00FB1D1B781A40FB1D511E8A411A700C
:1019E00020213020FEF72EFD03001A00FB1D1B787E
:1019F0001A40FB1D511E8A411A700021FF20FEF77C
:101A000021FD03001A00FB1D1B781A40FB1D511E0F
:101A10008A411A7009213020FEF714FD03001A00D4
:101A2000FB1D1B781A40FB1D511E8A411A700021B4
:101A30005420FEF707FD03001A00FB1D1B781A4017
:101A4000FB1D511E8A411A7004213120FEF7FAFC59
:101A500003001A00FB1D1B781A40FB1D511E8A4112
:101A60001A7003213220FEF7EDFC03001A00FB1D63
:101A70001B781A40FB1D511E8A411A708321402099
:101A8000FEF7E0FC03001A00FB1D1B781A40FB1D4B
:101A9000511E8A411A7025214620FEF7D3FC03000F
:101AA0001A00FB1D1B781A40FB1D511E8A411A703B
:101AB00000216020FEF7C6FC03001A00FB1D1B7806
:101AC0001A40FB1D511E8A411A7000212720FEF783
:101AD000B9FC03001A00FB1D1B781A40FB1D511EA8
:101AE0008A411A7006215020FEF7ACFC03001A0050
:101AF000FB1D1B781A40FB1D511E8A411A700021E4
:101B00005120FEF79FFC03001A00FB1D1B781A40B2
:101B1000FB1D511E8A411A7096215220FEF792FC3D
:101B200003001A00FB1D1B781A40FB1D511E8A4141
:101B30001A7008215620FEF785FC03001A00FB1DD1
:101B40001B781A40FB1D511E8A411A703021572004
:101B5000FEF778FC03001A00FB1D1B781A40FB1DE2
:101B6000511E8A411A7000216120FEF76BFC0300B0
:101B70001A00FB1D1B781A40FB1D511E8A411A706A
:101B800000216220FEF75EFC03001A00FB1D1B789B
:101B90001A40FB1D511E8A411A7000216420FEF775
:101BA00051FC03001A00FB1D1B781A40FB1D511E3F
:101BB0008A411A7000216520FEF744FC03001A00D8
:101BC000FB1D1B781A40FB1D511E8A411A70A02173
:101BD0006620FEF737FC03001A00FB1D1B781A4035
:101BE000FB1D511E8A411A700121FF20FEF72AFCBD
:101BF00003001A00FB1D1B781A40FB1D511E8A4171
:101C00001A7032212220FEF71DFC03001A00FB1D72
:101C10001B781A40FB1D511E8A411A70142147205F
:101C2000FEF710FC03001A00FB1D1B781A40FB1D79
:101C3000511E8A411A70FF214920FEF703FC030060
:101C40001A00FB1D1B781A40FB1D511E8A411A7099
:101C500000214A20FEF7F6FB03001A00FB1D1B784B
:101C60001A40FB1D511E8A411A700021FF20FEF709
:101C7000E9FB03001A00FB1D1B781A40FB1D511ED7
:101C80008A411A700A217A20FEF7DCFB03001A0051
:101C9000FB1D1B781A40FB1D511E8A411A70002142
:101CA0007B20FEF7CFFB03001A00FB1D1B781A40B8
:101CB000FB1D511E8A411A7021217820FEF7C2FBBC
:101CC00003001A00FB1D1B781A40FB1D511E8A41A0
:101CD0001A700121FF20FEF7B5FB03001A00FB1D5F
:101CE0001B781A40FB1D511E8A411A703421232093
:101CF000FEF7A8FB03001A00FB1D1B781A40FB1D12
:101D0000511E8A411A7000214220FEF79BFB0300FE
:101D10001A00FB1D1B781A40FB1D511E8A411A70C8
:101D2000FF214420FEF78EFB03001A00FB1D1B78E9
:101D30001A40FB1D511E8A411A7026214520FEF7CC
:101D400081FB03001A00FB1D1B781A40FB1D511E6E
:101D50008A411A7005214620FEF774FB03001A0021
:101D6000FB1D1B781A40FB1D511E8A411A70402131
:101D70004020FEF767FB03001A00FB1D1B781A408A
:101D8000FB1D511E8A411A7006210E20FEF75AFBD8
:101D900003001A00FB1D1B781A40FB1D511E8A41CF
:101DA0001A701A212020FEF74DFB03001A00FB1DBC
:101DB0001B781A40FB1D511E8A411A704021432096
:101DC000FEF740FB03001A00FB1D1B781A40FB1DA9
:101DD000511E8A411A700021FF20FEF733FB0300D9
:101DE0001A00FB1D1B781A40FB1D511E8A411A70F8
:101DF00003213420FEF726FB03001A00FB1D1B788D
:101E00001A40FB1D511E8A411A7044213520FEF7ED
:101E100019FB03001A00FB1D1B781A40FB1D511E05
:101E20008A411A700121FF20FEF70CFB03001A0003
:101E3000FB1D1B781A40FB1D511E8A411A7004219C
:101E40003120FEF7FFFA03001A00FB1D1B781A4031
:101E5000FB1D511E8A411A7009214B20FEF7F2FA30
:101E600003001A00FB1D1B781A40FB1D511E8A41FE
:101E70001A7005214C20FEF7E5FA03001A00FB1D3D
:101E80001B781A40FB1D511E8A411A7004214D20F7
:101E9000FEF7D8FA03001A00FB1D1B781A40FB1D41
:101EA000511E8A411A700021FF20FEF7CBFA030071
:101EB0001A00FB1D1B781A40FB1D511E8A411A7027
:101EC00000214420FEF7BEFA03001A00FB1D1B7818
:101ED0001A40FB1D511E8A411A7020214520FEF731
:101EE000B1FA03001A00FB1D1B781A40FB1D511E9E
:101EF0008A411A7008214720FEF7A4FA03001A004D
:101F0000FB1D1B781A40FB1D511E8A411A702821A7
:101F10004820FEF797FA03001A00FB1D1B781A40B1
:101F2000FB1D511E8A411A7000216720FEF78AFAB4
:101F300003001A00FB1D1B781A40FB1D511E8A412D
:101F40001A7004217020FEF77DFA03001A00FB1DB1
:101F50001B781A40FB1D511E8A411A700121712005
:101F6000FEF770FA03001A00FB1D1B781A40FB1DD8
:101F7000511E8A411A70FE217220FEF763FA030097
:101F80001A00FB1D1B781A40FB1D511E8A411A7056
:101F900000217620FEF756FA03001A00FB1D1B787D
:101FA0001A40FB1D511E8A411A7000217720FEF74E
:101FB00049FA03001A00FB1D1B781A40FB1D511E35
:101FC0008A411A700121FF20FEF73CFA03001A0033
:101FD000FB1D1B781A40FB1D511E8A411A700121FE
:101FE0000D20FEF72FFA03001A00FB1D1B781A4084
:101FF000FB1D511E8A411A700021FF20FEF722FAB4
:1020000003001A00FB1D1B781A40FB1D511E8A415C
:102010001A7001218020FEF715FA03001A00FB1D3B
:102020001B781A40FB1D511E8A411A70F8210120AD
:10203000FEF708FA03001A00FB1D1B781A40FB1D6F
:10204000511E8A411A700121FF20FEF7FBF903009F
:102050001A00FB1D1B781A40FB1D511E8A411A7085
:1020600001218E20FEF7EEF903001A00FB1D1B78FC
:102070001A40FB1D511E8A411A7001210020FEF7F3
:10208000E1F903001A00FB1D1B781A40FB1D511ECD
:102090008A411A700021FF20FEF7D4F903001A00CC
:1020A000FB1D1B781A40FB1D511E8A411A7000212E
:1020B0008020FEF7C7F903001A00FB1D1B781A40A9
:1020C000FB1D511E8A411A70FB1D1B781800BD466E
:1020D00002B080BD80B582B000AFFB1D00221A7037
:1020E00004210A20FEF7AEF9031E01D1002322E0ED
:1020F000FB1D19008420FEF7F3F8031E01D1002315
:1021000019E0FB1D1B7810229343DAB2FB1D1A70F5
:10211000FB1D1B7819008420FEF794F9031E01D1E2
:10212000002308E001210B20FEF78CF9031E01D1EA
:10213000002300E001231800BD4602B080BD80B539
:1021400082B000AF0200FB1D1A70FB1D1B78190046
:102150000120FEF777F903005A1E9341DBB2180005
:10216000BD4602B080BD80B500AFFFF79DFB030008
:102170001A0001235340DBB2002B01D0002317E0EB
:10218000FFF7A8FF03001A0001235340DBB2002B26
:1021900001D000230CE0E820FFF7D1FF03001A0074
:1021A00001235340DBB2002B01D0002300E00123C8
:1021B0001800BD4680BD90B585B000AF0200FB1D84
:1021C0001A700F23FB1800221A700E23FB1800222E
:1021D0001A700C23FB1800221A700D23FB18002222
:1021E0001A70FB1D1B78002B02D0012B09D011E0C7
:1021F0000E23FB1801221A700F23FB1841221A70BC
:1022000008E00E23FB1802221A700F23FB1801228C
:102210001A70C0460E23FB181B7819000120FEF728
:1022200011F9031E01D100233CE00F23FB181B789A
:1022300019000020FEF706F9031E01D1002331E04A
:102240000C243B1919001320FEF74AF803001A006A
:102250000D203B18511E8A411A703B181B78002B29
:1022600005D03B191B781A0007231340E8D00D2333
:10227000FB181B7801225340DBB2002B01D0002356
:1022800010E001210B20FEF7DDF8031E01D1002331
:1022900008E000210020FEF7D5F8031E01D100233D
:1022A00000E001231800BD4605B090BD80B500AF29
:1022B0000020FFF780FF03001A0001235340DBB228
:1022C000002B01D0002318E00120FFF774FF03006A
:1022D0001A0001235340DBB2002B01D000230CE095
:1022E000E820FFF72CFF03001A0001235340DBB264
:1022F000002B01D0002300E001231800BD4680BD63
:1023000080B500AFFFF726FA03001A0001235340FF
:10231000DBB2002B01D0002321E0FFF734FA0300E9
:102320001A0001235340DBB2002B01D0002316E03A
:10233000FFF719FF03001A0001235340DBB2002B03
:1023400001D000230BE0FFF7B1FF03001A000123C7
:102350005340DBB2002B01D0002300E00123180022
:10236000BD4680BD90B585B000AF78600E23FB18E8
:1023700000221A700D23FB1800221A700121802000
:10238000FEF760F803001A000F243B19511E8A4122
:102390001A700121FF20FEF755F803001A003B19BF
:1023A0001B781A403B19511E8A411A7000210020E7
:1023B000FEF748F803001A003B191B781A403B1936
:1023C000511E8A411A70564B1B7819009120FEF756
:1023D00039F803001A003B191B781A403B19511EAB
:1023E0008A411A7001210020FEF72CF803001A0020
:1023F0003B191B781A403B19511E8A411A70002163
:10240000FF20FEF71FF803001A003B191B781A4043
:102410003B19511E8A411A7000218020FEF712F8E4
:1024200003001A003B191B781A403B19511E8A41C0
:102430001A703B191B7801225340DBB2002B01D0EC
:10244000002368E001210020FDF7FCFF031E01D1FD
:10245000002360E00E243B1919000020FDF740FF27
:1024600003001A000F203B18511E8A411A703B18B6
:102470001B78002B05D03B191B781A000123134051
:10248000E8D10F23FB181B7801225340DBB2002B4D
:1024900001D000233FE00D243B1919001320FDF764
:1024A0001FFF03001A000F203B18511E8A411A70AB
:1024B0003B181B78002B05D03B191B781A0007230B
:1024C0001340E8D00F23FB181B7801225340DBB2E6
:1024D000002B01D000231EE07B6819001E20FDF7B1
:1024E0004FFF031E01D1002315E001210B20FDF752
:1024F000A9FF031E01D100230DE07B681B88094A58
:10250000934204D07B681B88074A934202D17B68C0
:10251000044A1A8001231800BD4605B090BDC0468C
:1025200034010020FE1F0000FF1F000090B585B0A1
:1025300000AF78603960184B1B68002B02D1012373
:102540005B4224E00023FB600AE0FB685A1CFA604F
:102550003A68D418114B180000F0ADF9030023704D
:102560007B68013B1A00FB68934205D20B4B1800B5
:1025700000F0CCF9031EE8D1FB68002B06D03A68C6
:10258000FB68D31800221A70FB6800E000231800D3
:10259000BD4605B090BDC046D001002038010020E6
:1025A00080B584B000AF78603960224B1B68002B87
:1025B00002D101235B4238E07B683F2B0BDCC04635
:1025C0001D4B180000F0A2F903004022D21A7B68CC
:1025D0009A42F5D302E002235B4226E00023FB602F
:1025E0000BE03A68FB68D3181A78134B11001800F7
:1025F00000F030F9FB680133FB607B68FA689A42AF
:10260000EFD30E4B1B68082213400DD10B4B1A68F9
:102610000A4B08210A431A60074B180000F04BF9D7
:1026200003001A00054B9A6200231800BD4604B04F
:1026300080BDC046D0010020840100200038014048
:1026400080B584B000AF786072B6C046454B0022BA
:102650009A64444B9A6C434B5A64424B5A6C414BBC
:102660001A64414B00229A643F4B9A6C3E4B5A6469
:102670003D4B5A6C3C4B1A643C4B01221A603C4B5C
:1026800000221A603B4BDA6A3A4B01210A43DA62B4
:10269000394BFB607968F86800F05AFD0300FB6075
:1026A000A023DB059A68A023DB058021C9020A4329
:1026B0009A60A023DB055A68A023DB052F490A4056
:1026C0005A60A023DB051B682D4A1A40A023DB05B6
:1026D000802109030A431A60A023DB055A6AA0235C
:1026E000DB0540210A435A62A023DB051B68254A0B
:1026F0001A40A023DB05802189030A431A60A02326
:10270000DB055A6AA023DB058021C9000A435A620F
:10271000184B5A6B174B8021C9010A435A631A4B55
:102720001A68194B6C210A431A60174B00225A6031
:10273000154B00229A60144BFA68DA60124B1A6843
:10274000114B01210A431A60104B1A680F4B80216C
:1027500009050A431A6062B6C046C046BD4604B0C9
:1027600080BDC0463801002084010020D001002037
:10277000D4010020001002400048E801FFFDFFFFE7
:10278000FFFFF3FFFFFFCFFF0038014000E100E053
:1027900080B500AF084BDB698022134001D000F008
:1027A00025F8054BDB692022134001D000F006F824
:1027B000C046BD4680BDC0460038014080B500AF70
:1027C000074B5B6ADAB2074B1100180000F042F8C1
:1027D000031E02D0044B01221A60C046BD4680BDD4
:1027E0000038014038010020D401002080B500AF3E
:1027F000164B180000F08AF8031E08D0134B18007F
:1028000000F059F803001A00114B9A621BE0104BBC
:102810001A680F4B08218A431A600D4BDB6940226E
:10282000134005D00A4B1A6A094B40210A431A6229
:10283000074BDB698022134005D0054B9A69044B96
:1028400010210A439A61C046BD4680BD8401002024
:102850000038014080B582B000AF78600A00FB1CF0
:102860001A707B681A6C7B685B6C9A4205D17B6836
:102870009B6C002B01D0012319E072B6C0467B6827
:102880001B6C591C7A6811647A68F91C0978D15458
:102890007B689B6C5A1C7B689A647B681B6C402B22
:1028A00002D17B6800221A6462B6C0460023180079
:1028B000BD4602B080BD80B584B000AF78607B6853
:1028C0009B6C002B01D100231CE072B6C0467B68D4
:1028D0005B6C591C7A6851640F22BA187968CB5C1A
:1028E00013707B685B6C402B02D17B6800225A64BA
:1028F0007B689B6C5A1E7B689A6462B6C0460F2345
:10290000FB181B781800BD4604B080BD80B582B0AE
:1029100000AF78607B689B6C1800BD4602B080BD3C
:1029200080B582B000AF78600B4B1B68002B09D1DB
:1029300001235B420BE07B685A1C7A60190001207E
:10294000FFF72EFE7B681B78002BF4D100231800C4
:10295000BD4602B080BDC046D001002080B582B027
:1029600000AF0200FB1D1A70FB1D19000120FFF7CC
:1029700017FEC046BD4602B080BD80B500AF044B17
:102980001800FFF798FF03001800BD4680BDC04641
:1029900038010020B0B584B000AF786039601E4BBC
:1029A0001B68002B02D101235B4231E00023FB6056
:1029B0000B23FB1800221A7017E0C046174B1800B3
:1029C000FFF7A4FF031EF9D00B257C19134B180049
:1029D000FFF771FF03002370FB685A1CFA601A00AE
:1029E0007B689B187A1912781A703B68013BFA6869
:1029F0009A4204DA0B23FB181B780D2BDDD1FB6800
:102A0000002B04DDFB687A68D31800221A70FB687B
:102A10001800BD4604B0B0BDD00100203801002030
:102A200090B583B000AFFC1DFFF7A7FF0300237034
:102A3000FB1D1B781800FFF791FFFB1D1B7818008A
:102A4000BD4603B090BDB0B584B000AF78603960CA
:102A5000214B1B68002B02D101235B4237E000238E
:102A6000FB600B23FB1800221A701DE0C0461B4BB5
:102A70001800FFF74BFF031EF9D00B257C19174BED
:102A80001800FFF718FF030023702C003B191B7878
:102A90001800FFF763FFFB685A1CFA601A007B6896
:102AA0009B183A1912781A703B68013BFA689A42EF
:102AB00004DA0B23FB181B780D2BD7D1FB68002BF6
:102AC00004DDFB687A68D31800221A70FB681800CE
:102AD000BD4604B0B0BDC046D00100203801002082
:102AE00080B582B000AF164B7B60164B3B6007E0B1
:102AF0007A68131D7B603B68191D396012681A6083
:102B00003A68114B9A42F3D304E03B681A1D3A60CD
:102B100000221A603A680D4B9A42F6D30C4B3B6088
:102B200004E03B681A1D3A601B6898473A68094BF5
:102B30009A42F6D3C046C046BD4602B080BDC046EC
:102B4000844C00080000002070000020FC010020E0
:102B5000844C0008844C000880B500AF3B4B1A68D9
:102B60003A4B01210A431A60C046384B1B680422C5
:102B70001340FAD0354B0122DA60C046334BDB6894
:102B80000C221340042BF9D1314B1A68304B02212F
:102B90000A431A602E4B1A682D4B01210A431A6012
:102BA0002A4B9A6B294B802149050A439A63294B8A
:102BB000802212011A60C046264B5B681022134027
:102BC000FAD1224BDA68214B23490A40DA601F4BC5
:102BD000DA681E4B8821C9030A43DA601B4A1B4B83
:102BE000D268DA60194A194BD268DA60174A174B73
:102BF000D268DA60154B1A68144B18490A401A60FB
:102C0000124B1A68114B802149040A431A60C046CE
:102C10000E4B1A6880239B041340F9D00B4BDA68E3
:102C20000A4B03218A43DA60084BDA68074B032119
:102C30000A43DA60C046054BDB680C2213400C2BBC
:102C4000F9D1C046C046BD4680BDC0460010024016
:102C50000020024000700040FFFF02FFFFFFFFFE68
:102C600080B500AF024B1800FFF75AFEFEE7C046E2
:102C7000984B000880B500AF024B1800FFF750FEDC
:102C8000FEE7C046C84B000880B582B000AF786050
:102C9000FEE780B582B000AF786001235B42180088
:102CA000BD4602B080BD80B584B000AFF860B960A9
:102CB0007A60044B0C221A6001235B421800BD4667
:102CC00004B080BDE401002080B500AF034B0B22AF
:102CD0001A6001235B421800BD4680BDE40100205C
:102CE00080B582B000AF786039603B688022920185
:102CF0005A6000231800BD4602B080BD80B500AF09
:102D000001231800BD4680BD80B582B000AF786059
:102D10003960044B16221A6001235B421800BD463D
:102D200002B080BDE401002080B582B000AF7860C1
:102D30003960044B1F221A6001235B421800BD4614
:102D400002B080BDE401002080B584B000AFF8601F
:102D5000B9607A6000231800BD4604B080BD80B51C
:102D600082B000AF786039603B68802292015A607F
:102D700000231800BD4602B080BD80B582B000AF10
:102D8000786001235B421800BD4602B080BD80B56B
:102D900082B000AF7860044B02221A6001235B42CC
:102DA0001800BD4602B080BDE401002080B582B0AD
:102DB00000AF7860044B0A221A6001235B421800BE
:102DC000BD4602B080BDC046E401002080B582B09F
:102DD00000AF78607B68022B01D8012303E0044B2D
:102DE00009221A6000231800BD4602B080BDC0460B
:102DF000E401002080B586B000AF7860124B7B61A3
:102E0000124B3B61124B1B68002B02D1104B7A69AD
:102E10001A600F4B1B68FB600D4B1A687B68D31858
:102E20003A699A4205D20B4B0C221A6001235B428D
:102E300006E0074B1A687B68D218054B1A60FB68DE
:102E40001800BD4606B080BDFC0100200010002027
:102E5000E0010020E401002080B588B000AFF860F8
:102E6000B9607A600023BB61FB68002B22D100238C
:102E7000FB611AE0FFF781FD03001A0017217B18A0
:102E80001A70BB685A1CBA607A181278D2B21A70DB
:102E9000BB690133BB617B181B78DBB20A2B01D104
:102EA000BB690EE0FB690133FB61FA697B689A42FA
:102EB000E0DB05E0054B09221A6001235B4200E0DC
:102EC000BB691800BD4608B080BDC046E4010020C3
:102ED00080B586B000AFF860B9607A60FB68013BEE
:102EE000012B16D800237B610EE0C0460E4BDB6938
:102EF00080221340FAD0BB685A1CBA601A780A4B79
:102F00009A627B6901337B617A697B689A42ECDB68
:102F100005E0064B09221A6001235B4200E07B6852
:102F20001800BD4606B080BD00440040E40100200A
:102F300080B500AF244B5A6B234B802189000A4394
:102F40005A63224B1A69214BC02109060A431A61B0
:102F50001E4B1A681D4B01210A431A601B4B9A68CD
:102F60001A4B01210A439A60184BDA6880231B022E
:102F7000134005D1C046154B1B6801221340FAD0FF
:102F8000124B9B680122134005D0104B9A680F4BDF
:102F900002210A439A600D4B9A680C4B8021090666
:102FA0000A439A60C046094B1A6880231B011340EC
:102FB000F9D0064B1A68054B802109010A431A60B3
:102FC000C046BD4680BDC0460010024000240140FE
:102FD00080B582B000AF7860164BDA68154B80215F
:102FE00009020A43DA60134B7A689A62114B5A69F4
:102FF000104B07210A435A617A6880239B029A4248
:1030000006D10D4B1A680C4B8021C9030A431A6084
:10301000084B9A68074B04210A439A60C046054B47
:103020001B6804221340FAD0024B1B6C1800BD46EB
:1030300002B080BD0024014008270140002243085F
:103040008B4274D303098B425FD3030A8B4244D370
:10305000030B8B4228D3030C8B420DD3FF220902B2
:1030600012BA030C8B4202D31212090265D0030B71
:103070008B4219D300E0090AC30B8B4201D3CB0367
:10308000C01A5241830B8B4201D38B03C01A5241A9
:10309000430B8B4201D34B03C01A5241030B8B42AB
:1030A00001D30B03C01A5241C30A8B4201D3CB0296
:1030B000C01A5241830A8B4201D38B02C01A52417B
:1030C000430A8B4201D34B02C01A5241030A8B427E
:1030D00001D30B02C01A5241CDD2C3098B4201D396
:1030E000CB01C01A524183098B4201D38B01C01A14
:1030F000524143098B4201D34B01C01A524103098B
:103100008B4201D30B01C01A5241C3088B4201D339
:10311000CB00C01A524183088B4201D38B00C01AE6
:10312000524143088B4201D34B00C01A5241411A0D
:1031300000D20146524110467047FFE701B500201A
:1031400000F0F0F802BDC0460029F7D076E77047DE
:1031500003460B437FD4002243088B4274D30309F8
:103160008B425FD3030A8B4244D3030B8B4228D399
:10317000030C8B420DD3FF22090212BA030C8B42BF
:1031800002D31212090265D0030B8B4219D300E05F
:10319000090AC30B8B4201D3CB03C01A5241830BE4
:1031A0008B4201D38B03C01A5241430B8B4201D394
:1031B0004B03C01A5241030B8B4201D30B03C01ABD
:1031C0005241C30A8B4201D3CB02C01A5241830A37
:1031D0008B4201D38B02C01A5241430A8B4201D366
:1031E0004B02C01A5241030A8B4201D30B02C01A90
:1031F0005241CDD2C3098B4201D3CB01C01A5241F7
:1032000083098B4201D38B01C01A524143098B427F
:1032100001D34B01C01A524103098B4201D30B0168
:10322000C01A5241C3088B4201D3CB00C01A52418D
:1032300083088B4201D38B00C01A524143088B4252
:1032400001D34B00C01A5241411A00D201465241EB
:10325000104670475DE0CA0F00D04942031000D30A
:103260004042534000229C4603098B422DD3030A5F
:103270008B4212D3FC22890112BA030A8B420CD36F
:10328000890192118B4208D3890192118B4204D398
:1032900089013AD0921100E08909C3098B4201D318
:1032A000CB01C01A524183098B4201D38B01C01A52
:1032B000524143098B4201D34B01C01A52410309C9
:1032C0008B4201D30B01C01A5241C3088B4201D378
:1032D000CB00C01A524183088B4201D38B00C01A25
:1032E0005241D9D243088B4201D34B00C01A5241FC
:1032F000411A00D20146634652415B10104601D389
:103300004042002B00D54942704763465B1000D312
:10331000404201B5002000F005F802BD0029F8D0B8
:1033200016E770477047C0460EB417B5041E04D0A8
:103330008369002B01D100F001FB06AB2000059A48
:10334000A168019300F06AFD1EBC08BC03B01847D9
:103350000FB40B4B13B51C68002C05D0A369002BD0
:1033600002D1200000F0EAFA05AB2000049AA1681F
:10337000019300F053FD16BC08BC04B01847C046CA
:103380000C00002070B504000D00002804D08369F3
:10339000002B01D100F0D2FA29002000A26801F030
:1033A00005F870BD084B70B51C680500002C05D0F1
:1033B000A369002B02D1200000F0C0FA29002000F0
:1033C000A26800F0F3FF70BD0C00002070B505008E
:1033D0000E00002804D08369002B01D100F0AEFA62
:1033E000AB69AC68002B02D1280000F0A7FA2D4B86
:1033F0009C4222D16C68636EDB0705D4A3899B05D0
:1034000002D4A06D00F076FBA3891B0702D52369C7
:10341000002B29D12100280000F0B4F8002823D087
:1034200001256D42636EDB0705D4A3899B0502D499
:10343000A06D00F065FB280070BD1B4B9C4201D1C4
:10344000AC68D8E7194B9C42D5D1EC68D3E701367C
:10345000A360002B04DAA2699A4216DC0A2914D070
:1034600023685A1C22601970A3683178013B002937
:10347000EDD1A360002B0FDA280022000A3100F002
:1034800021F80A25431CCDD1CAE72200280000F00C
:1034900019F8431CE8D1C3E70A2523685A1C2260A7
:1034A0001D70BFE70C4C00082C4C0008EC4B0008CA
:1034B00010B5034B01001868FFF788FF10BDC04628
:1034C0000C000020F8B505000E001400002804D000
:1034D0008369002B01D100F031FA224B9C422ED19E
:1034E0006C68A369A360A3891B0732D52369002BED
:1034F0002FD023682269F7B2981A6369F6B2834223
:1035000005DC2100280000F041F9002827D1A3683C
:103510000130013BA36023685A1C22601F7063695D
:10352000834204D0A389DB0707D50A2E05D12100E9
:10353000280000F02BF9002811D13000F8BD0A4B0B
:103540009C4201D1AC68CCE7084B9C42C9D1EC68E5
:10355000C7E72100280000F015F80028C9D001268F
:103560007642EAE70C4C00082C4C0008EC4B0008B3
:1035700010B5034B0A0001001868FFF7A3FF10BD48
:103580000C000020374B70B51D6806000C00002DA4
:1035900005D0AB69002B02D1280000F0CFF9324BE7
:1035A0009C420FD16C680C23E25E93B211072DD4BC
:1035B000D90611D409230120336037331343A38183
:1035C000404270BD294B9C4201D1AC68EBE7284BCF
:1035D0009C42E8D1EC68E6E75B0713D5616B0029F4
:1035E00008D023004433994202D0300000F0FEFAA4
:1035F000002363632422A3899343A3810023636090
:10360000236923600823A2891343A3812369002B24
:103610000BD1A0218022A389890092000B40934204
:1036200003D02100300000F095FA0C22A35E0120A7
:103630001A0099B2024003420FD00022A2606269D0
:103640005242A261002022698242BAD10A06B8D54C
:1036500040221343A3810138B3E7880700D462698D
:10366000A260EFE70C0000200C4C00082C4C000876
:10367000EC4B0008F7B58B8905000C001A075FD4E6
:103680004A68002A04DC0A6C002A01DC0020FEBD26
:10369000E76A002FFAD0002280212E682A601A00E3
:1036A00049010A400B4234D0606DA3895B0706D5FF
:1036B0006368C01A636B002B01D0236CC01A020030
:1036C000216A00232800E76AB847A189431C06D174
:1036D0002B681D2B31D82C4ADA40D3072DD5002377
:1036E000636023692360CB0405D5431C02D12B689A
:1036F000002B00D16065616B2E600029C6D02300CD
:103700004433994202D0280000F070FA0020606330
:10371000BDE701232800216AB847431CC5D12B68A7
:10372000002BC2D01D2B01D0162B01D12E60ADE78E
:103730004023A2891343A381A9E740230B43FAE75F
:103740000F69002FA2D00A680F60D21B01920022DD
:103750009B0700D14A69A260019B002B00DC95E722
:103760003A002800019B216AA66AB047002806DCBF
:1037700040230120A28940421343A38187E7019B94
:103780003F181B1A0193E7E7010040200B6970B551
:1037900005000C00002B02D10025280070BD002878
:1037A00004D08369002B01D100F0C8F8144B9C426F
:1037B0001BD16C680C22A35E002BEDD0626ED20789
:1037C00004D49B0502D4A06D00F094F928002100D8
:1037D000FFF750FF636E0500DB07DED4A3899B056E
:1037E000DBD4A06D00F08CF9D7E7064B9C4201D1E9
:1037F000AC68DFE7044B9C42DCD1EC68DAE7C046FA
:103800000C4C00082C4C0008EC4B0008010010B5D3
:10381000002805D1054B0649186800F046F910BD8F
:10382000044B1868FFF7B2FFF9E7C0464C4C00089C
:103830008D3700080C000020002310B50400036041
:1038400043608360818143661900C28103614361E3
:10385000836108225C3000F0C1F9054B2462636289
:10386000044BA362044BE362044B236310BDC046C8
:1038700079440008A5440008DD4400080945000813
:1038800010B5024900F011F910BDC0468D3700088F
:10389000436E10B5DB0705D483899B0502D4806D88
:1038A00000F028F9002010BD436E10B5DB0705D4E9
:1038B00083899B0502D4806D00F022F9002010BDA1
:1038C00070B568254A1E55430E002900743100F07A
:1038D000F9F9041E08D000212A00016046600C306E
:1038E000A060683200F07AF9200070BD10B5024B7C
:1038F0001868FFF7C5FF10BD4C4C000810B5024812
:1039000000F0F8F810BDC046EE01002010B50248E6
:1039100000F0F6F810BDC046EE01002010B50248D8
:1039200000F0E8F810BDC046EF01002010B50248D5
:1039300000F0E6F810BDC046EF01002013B504000A
:10394000FFF7ECFFA369002B02D0FFF7EFFF13BDD9
:10395000A364E3642365134B134A1B68A2620193BB
:10396000A34201D10123A361200000F01FF8606091
:10397000200000F01BF8A060200000F017F80022E3
:103980000421E0606068FFF757FF01220921A06869
:10399000FFF752FF02221221E068FFF74DFF0123DB
:1039A000A361D2E74C4C000881380008F8B5070045
:1039B000FFF7A4FF1F4B1E68B369002B02D1300034
:1039C000FFF7BCFF4836B4687368013B04D5336821
:1039D000002B22D03668F6E70C22A55E002D1AD106
:1039E0002000154B5830E360656600F07FF8FFF764
:1039F0008DFF2000082229002560A56065602561F3
:103A00006561A5615C3000F0E9F86563A563A564B4
:103A1000E5642000F8BD6834D7E704213800FFF7DB
:103A20004FFF041E3060D5D1FFF770FF0C233B60C1
:103A3000EFE7C0464C4C00080100FFFF10B5FFF750
:103A40005DFF034B0349186800F014F810BDC04631
:103A50000C0000209138000810B5044B0449186888
:103A600000F008F8FFF752FF10BDC0460C00002020
:103A7000A9380008F7B54830040000260191A56870
:103A80006768013F04D52468002CF8D13000FEBDE2
:103A9000AB89012B07D90E22AB5E013303D028007E
:103AA000019B984706436835EBE7F7B5040006002D
:103AB0000027019148346368A5680093009B013B8F
:103AC000009304D52468002CF5D13800FEBDAB89E5
:103AD000012B08D90E22AB5E013304D0290030003F
:103AE000019B984707436835E8E770477047704780
:103AF000704770477047012070470120704770473A
:103B00007047000070B50E001D000E23C95E140042
:103B100096B0002908DA0C22B35E00222A601B0648
:103B200011D48023DB000FE06A4600F019FD002865
:103B3000F1DBF02301991B021940054BC9184B42D8
:103B400059412960EDE740230020236016B070BD85
:103B500000E0FFFFF7B502268B8905000C00334219
:103B600006D0230047332360236101236361F7BD3F
:103B70006A4601ABFFF7C6FF00990700280000F076
:103B8000A1F8002808D10C22A35E9A05EFD40322E5
:103B900093431E43A681E4E70F4BAB628023A289C7
:103BA00020601343A381009B20616361019B002B74
:103BB0000DD028000E23E15E00F04CFE002806D058
:103BC0000322A38993431A0001231343A381A089ED
:103BD0000743A781CBE7C04681380008030082185D
:103BE000934200D1704719700133F9E770B50500B1
:103BF000002910D00C1F2368002B00DAE4182800DD
:103C000000F076FE1D4A1368002B05D16360146036
:103C1000280000F075FE70BDA34208D92168601825
:103C20008342F3D118685B6841182160EEE71A00FF
:103C30005B68002B01D0A342F9D911685018A0424B
:103C40000BD120680918501811608342E0D1186820
:103C50005B68411811605360DAE7A04202D90C2377
:103C60002B60D5E721686018834203D118685B6830
:103C70004118216063605460CAE7C046F401002027
:103C800070B50F4E0D0031680400002902D100F01C
:103C9000E1FB30602900200000F0DCFB431C0AD06F
:103CA0000323C51C9D43A84207D0291A200000F019
:103CB000D1FB431C01D101256D42280070BDC046D7
:103CC000F8010020F7B50322CB1C9343083306000C
:103CD0001F000C2B32D20C27B94231D8300000F033
:103CE00007FE324D2B681C00002C2ED1390030000D
:103CF000FFF7C6FF0400431C1ED12C682500002DD1
:103D00004AD123682900E3183000019300F0A2FB98
:103D1000019B834243D123680337FF1A03239F4348
:103D200008370C2F00D20C2739003000FFF7A8FF0E
:103D3000431C34D02368DF19276013E0002BCBDA53
:103D40000C23002533602800FEBD2268D11B20D43F
:103D50000B2917D9E2192760A34211D12A606368A1
:103D6000116053603000250000F0CAFD07220B35BA
:103D7000231D9543EA1A9D42E5D05B1BA350E2E761
:103D80005A60ECE76268A34201D12A60EAE75A6010
:103D9000E8E723006468A7E72C006D68AFE70C2311
:103DA0003000336000F0ACFDCDE7C046F4010020E8
:103DB000936810B5013B9360002B04DA9469A34229
:103DC00007DB0A2905D01368581C10601970080019
:103DD00010BDFFF777FB0100F9E7F8B506000F000B
:103DE0001400D518AC4201D1002007E021783A0038
:103DF0003000FFF7DDFF0134431CF3D1F8BD9368B9
:103E000010B51400002B02D11800536010BD00F053
:103E1000B9FB0023A3606360F8E70000F0B5A1B030
:103E200006000C001F000392002804D08369002BB9
:103E300001D1FFF783FD8E4B9C421CD17468636EE9
:103E4000DB0705D4A3899B0502D4A06DFFF752FEC2
:103E5000A3891B0702D52369002B1DD12100300047
:103E6000FFF790FB002817D0636EDB070DD501200C
:103E7000404221B0F0BD7F4B9C4201D1B468DEE7E7
:103E80007D4B9C42DBD1F468D9E7A3899B05EED436
:103E9000A06DFFF735FEEAE7002308AD6B61203324
:103EA0006B761033AB760797039F3B78002B01D0DE
:103EB000252B4ED1039BFB1A0593039B9F420DD0EC
:103EC000059B21003000039AFFF787FF431C00D1B8
:103ED000B5E06A69059B944663446B613B78002BAF
:103EE00000D1ACE001227B1C0393002352426A60A4
:103EF00004A9543252182B60EB60AB601370AB65B1
:103F0000039B052219785D4800F0CAFC039B5F1CE7
:103F1000002820D12A68D30604D5532304A95B18AE
:103F200020211970130704D5532304A95B182B21F2
:103F30001970039B1B782A2B16D00021EB68039F76
:103F40003A78781C303A8446092A4FD9002911D191
:103F500017E00137A9E7494B2A68C01A01238340BB
:103F600013432B600397CBE7079B191D1B68079131
:103F7000002B01DB0B9304E05B42EB600223134355
:103F80002B603B782E2B0AD17B782A2B37D1079BCD
:103F900002371A1D1B680792002B2DDB09930322A1
:103FA0003978374800F07CFC002807D0344B2A6869
:103FB000C01A40238340134301372B6039787B1CA0
:103FC000062230480393297600F06AFC002845D089
:103FD0002D4B002B27D10722079B07339343083330
:103FE00007936B69049A9B186B615DE70A214B4349
:103FF00067469B180939A3E701235B42CEE70023FC
:104000001A0001376B603978781C303984460929E9
:1040100003D9002BC3D00992C1E70A235A4367464C
:104020005218093BEFE707AB00932200290030004C
:10403000164B00E000BF0490049B0133D1D1636EA6
:10404000DB0705D4A3899B0502D4A06DFFF758FDBB
:10405000A3895B0600D50AE70D980AE707AB009332
:10406000220029003000094B00F08EF8E3E7C0463B
:104070000C4C00082C4C0008EC4B0008504C00087D
:10408000564C00085A4C000800000000DB3D0008B8
:1040900010B513000A00010002480068FFF7BEFED9
:1040A00010BDC0460C000020F7B5150001938A68CA
:1040B0000B690C000090934200DA130022002B6081
:1040C00043321278002A01D001332B6023689B060B
:1040D00002D52B6802332B602268062317001F408D
:1040E0001A4227D0230043331B785A1E934122687B
:1040F000920630D4220001990098089E4332B047BE
:10410000431C25D0062320682A68E1680025034067
:10411000042B03D18D1AEB43DB171D40A3682269E2
:10412000934201DD9B1AED180027BD4220D10020EB
:1041300010E00137E3682A689B1ABB42D2DD2200F7
:10414000012301990098089E1932B047431CF0D111
:1041500001204042FEBD3020E118433108702100AB
:104160005A1C45310978A218433202331170C1E755
:104170002200012301990098089E1A32B047431C7F
:10418000E6D00137D1E70000F0B58BB006920A0007
:1041900043320793059004920A7E0C00109B782A04
:1041A00007D8622A09D8002A00D1C1E0582A00D1D4
:1041B0008CE026004236327022E010006338152869
:1041C000F7D800F0F1FB16001F00F6FFF6FFF6FF30
:1041D000F6FF1F00F6FFF6FFF6FFF6FFA800360019
:1041E0009A00F6FFF6FFB900F6FF3600F6FFF6FF7D
:1041F0009E0026001A684236111D1960136833703C
:104200000123A7E0086819680A1D05060BD50D688B
:104210001A60002D03DA2D23049A6D421370614B4E
:104220000A2703931BE00D681A604106F1D52DB2F1
:10423000EFE70D681968081D18602E0601D50D6896
:1042400003E06D06FBD50D68ADB2564B082703930E
:104250006F2A00D002372300002243331A706368AC
:10426000A360002B03DB0422216891432160002D11
:1042700002D1049E002B0CD0049E28003900FEF7CA
:1042800063FF039B013E5B5C33702B0005009F4284
:10429000F3D9082F09D12368DB0706D563682269A3
:1042A000934202DC3023013E3370049B9B1B23614D
:1042B000079B210000930598069B09AAFFF7F4FECF
:1042C000431C4CD1012040420BB0F0BD45310A7077
:1042D000344A03921A68216820CA1A60080616D563
:1042E000CB0702D52023194321601027002DB2D11E
:1042F000202322689A432260ADE7202209680A43FE
:1043000022602200782145321170274AE1E74806F1
:10431000E6D5ADB2E4E71A680D68101D496918606A
:1043200013682E0601D5196002E06D06FBD51980D1
:104330000023049E2361BBE71A68111D19601668EB
:1043400000213000626800F0ABFA002801D0801B29
:104350006060636823610023049A1370A8E72369EF
:10436000320006990598079DA847431CAAD02368E8
:104370009B0715D4099BE0689842A5DA1800A3E7CB
:104380002200012306990598079E1932B047431C65
:1043900098D00135E368099A9B1AAB42F0DCE9E753
:1043A0000025F7E7614C0008724C000870B5060064
:1043B0000D001400002804D08369002B01D1FFF701
:1043C000BDFA1C4B9C4224D17468636EDB0705D494
:1043D000A3899B0502D4A06DFFF78CFBA368013B6A
:1043E000A360002B05DAA26993421CDBEBB20A2B17
:1043F00019D023685A1C22601D70EDB2636EDB0772
:1044000005D4A3899B0502D4A06DFFF779FB280092
:1044100070BD094B9C4201D1B468D6E7074B9C4262
:10442000D3D1F468D1E7290022003000FFF74AF821
:104430000500E3E70C4C00082C4C0008EC4B00088E
:1044400010B5034B0A0001001868FFF7AFFF10BD5D
:104450000C000020002370B5064D040008002B60FE
:10446000FEF7C8FC431C03D12B68002B00D023604F
:1044700070BDC046E401002070B50C000E25495FF8
:1044800000F076FA002803DB636D1B18636570BDCE
:10449000A389024A1340A381F9E7C046FFEFFFFF5B
:1044A00000207047F8B51F008B8905000C0016002E
:1044B000DB0505D50E23C95E0022022300F0DCF9DE
:1044C000A389054A28001340A38132000E23E15E30
:1044D0003B0000F01FF8F8BDFFEFFFFF70B50C00C8
:1044E0000E25495F00F0C8F9A389421C03D1054A93
:1044F0001340A38170BD802252011343A3816065E4
:10450000F8E7C046FFEFFFFF10B50E23C95E00F0CD
:1045100015F810BD70B50400080011001A00002342
:10452000054D2B60FEF7D4FC431C03D12B68002BF8
:1045300000D0236070BDC046E4010020002370B5A8
:10454000064D040008002B60FEF7A3FB431C03D1BB
:104550002B68002B00D0236070BDC046E401002012
:10456000002370B5064D0400080011002B60FEF713
:10457000B7FB431C03D12B68002B00D0236070BD18
:10458000E4010020F0B5936887B00C001700039099
:10459000002B02D1002007B0F0BD8B891B0759D535
:1045A0000B69002B56D03B6802220293A3891800A6
:1045B0001040134275D1012201211A400B4200D153
:1045C000ADE0060001900490049B002B00D116E1A1
:1045D00000280CD11A000A21300000F061F9049B78
:1045E00001330193002802D00130831B0193019B0A
:1045F000049A0593934200D9059220682269636961
:10460000904200D804E1A2689D18059AAA4200DCF5
:10461000FEE031002A0000F057F9236821005B1901
:1046200003982360FFF7B2F8002873D1019B0120A3
:104630005B1B019305D121000398FFF7A7F8002821
:1046400068D1049B76195B1B0493BB685D1BBD603E
:10465000BAD19FE721000398FEF794FF0028A2D06B
:104660000120404297E7029B1B680193029B5D6813
:1046700008330293002DF6D0724A2B00954200D9E0
:104680001300019A216A0398A66AB047002841DD09
:10469000019B2D1A1B180193BB68181AB860E9D149
:1046A00078E700231D000193E4E7029B1B68049355
:1046B000029B5B680193029B08330293019B002BD2
:1046C000F3D08023A2899B002068A5681A4264D099
:1046D000019B9D4238D89023DB001A4234D02169D7
:1046E000431A0320059363695843059BC60F361888
:1046F000019801331B187610B34200D91E005305F0
:104700003CD531000398FFF7DDFA051E0AD10C23D2
:10471000039A13604023A2891343A381A0E7049264
:104720000192CBE7059A216900F0C5F8A389464AB2
:104730001A4080231343A381059B2561ED18256052
:104740006661019DF61AA660019EB54200D935004A
:104750002A000499206800F0B7F8A3685B1BA360E7
:1047600023685D192560049B9B190493019B9B1B87
:104770000193BB689E1BBE60A0D10BE7320003987B
:1047800000F0C6F8051ED7D121690398FFF72EFA6D
:104790008022A3899343A381B9E72369834203D38A
:1047A0006669019B9E4217D9019B9D4200D91D005D
:1047B0002A00049900F088F8A36822685B1B52194C
:1047C0002E00A3602260002BCDD121000398FEF7BC
:1047D000DDFF0028C7D09DE7019A1C4B10009A42CC
:1047E00000D91B483100FEF7B3FC3300049A434361
:1047F000216A0398A56AA847061EB4DC8AE7029BD3
:1048000000201E685B680493029B08330293DBE67A
:10481000059A934208DCA56A3200216A0398A847EA
:10482000051E00DD02E775E7059A310000F04CF83F
:10483000059AA36815009B1AA36023689B18236040
:10484000F4E6C04600FCFF7F7FFBFFFFFEFFFF7F1B
:10485000FFFFFF7F002370B5064D040008002B60AA
:10486000FEF7B4FA431C03D12B68002B00D0236061
:1048700070BDC046E401002070B5040008001100BE
:104880001A000023054D2B60FEF75EFA431C03D18E
:104890002B68002B00D0236070BDC046E4010020CF
:1048A000C9B28218904201D10020704703788B4230
:1048B000FBD00130F6E7002310B59A4200D110BDBD
:1048C000CC5CC4540133F8E710B5884202D98B1888
:1048D000984203D3002307E08B5C8354013AFBD258
:1048E00010BDCC5CC45401339A42FAD1F8E7000001
:1048F00010B50248FFF7FEF810BDC046ED010020DC
:1049000010B50248FFF7FCF810BDC046ED010020CD
:10491000F7B507000E001400002905D11100FFF7BC
:10492000D1F905002800FEBD002A03D1FFF75EF98A
:104930002500F7E700F030F80190844203D83500F5
:104940004308A342EED321003800FFF7BBF9051E50
:10495000E8D0019B22009C4200D91A0031002800B7
:10496000FFF7A9FF31003800FFF740F9DAE7000050
:1049700070B50400080011001A000023054D2B60DB
:10498000FEF76AFA431C03D12B68002B00D023608A
:1049900070BDC046E40100200B1F1B68181F002BD0
:1049A00001DA0B58C018704703B47146490840003B
:1049B0004900095E49008E4403BC70475265672870
:1049C00030786330293A203078253032780D0A006B
:1049D0005265672830786331293A203078253032A3
:1049E000780D0A005265672830786332293A203002
:1049F00078253032780D0A005265672830783531D5
:104A0000293A203078253034780D0A00526567281D
:104A100030783631293A203078253034780D0A0044
:104A20000D00000054657374696E6731000000006A
:104A30004C6566743A256C640A0000005269676828
:104A4000743A256C640A0000496E7465727365637C
:104A500074696F6E3A256C640A00000049525F6306
:104A60006F756E7465723A256C640A0070617468C3
:104A70005F63686F6963653A256C640A0000000033
:104A80006D61676E69747564653A256C640A00002F
:104A9000416E676C653A256C640A00005475726E4D
:104AA0005F436F756E7465723A25640A00000000FA
:104AB000496E74657273656374696F6E5F466C618D
:104AC000673A25640A000000496E6465783A2564F7
:104AD0000A000000426174746572793A2025640D01
:104AE0000A000000526576657273655F496E7465F1
:104AF0007273656374696F6E5F436F756E743A208D
:104B000025640D0A000000005461736B3A25630DA3
:104B10000A00000001000000020000000200000086
:104B2000010000000300000002000000030000007C
:104B3000040000000200000003000000020000006A
:104B4000030000000100000001000000040000005C
:104B5000030000000100000003000000020000004C
:104B6000030000000200000001000000040000003B
:104B70000D0A52657475726E65642066726F6D20E1
:104B80006D61696E28292E202053797374656D201C
:104B900073746F702E000000496E746572727570C8
:104BA0007420776974686F75742068616E646C65D1
:104BB000722028495352292E202053797374656D31
:104BC0002073746F702E0000486172642046617516
:104BD0006C7420696E746572727570742E20205327
:104BE000797374656D2073746F702E00000000007F
:104BF00000000000000000000000000000000000B5
:104C000000000000000000000000000000000000A4
:104C10000000000000000000000000000000000094
:104C20000000000000000000000000000000000084
:104C30000000000000000000000000000000000074
:104C40000000000000000000000000001000002034
:104C5000232D302B2000686C4C0065666745464765
:104C600000303132333435363738394142434445E8
:104C70004600303132333435363738396162636457
:044C80006566000065
:104C84000100000005000000DC01002010000020ED
:104C9400000000000C4C00082C4C0008EC4B0008F1
:104CA4000000000000000000000000000000000000
:104CB40000000000000000000000000000000000F0
:104CC40000000000000000000000000000000000E0
:104CD40000000000000000000000000000000000D0
:104CE40000000000000000000000000000000000C0
:04000005080000B936
:00000001FF
